{
  "contractName": "BlindAuction",
  "abi": [
    {
      "inputs": [
        {
          "internalType": "uint256",
          "name": "_biddingTime",
          "type": "uint256"
        },
        {
          "internalType": "uint256",
          "name": "_revealTime",
          "type": "uint256"
        },
        {
          "internalType": "address payable",
          "name": "_beneficiary",
          "type": "address"
        }
      ],
      "stateMutability": "nonpayable",
      "type": "constructor"
    },
    {
      "inputs": [],
      "name": "AuctionEndAlreadyCalled",
      "type": "error"
    },
    {
      "inputs": [
        {
          "internalType": "uint256",
          "name": "time",
          "type": "uint256"
        }
      ],
      "name": "TooEarly",
      "type": "error"
    },
    {
      "inputs": [
        {
          "internalType": "uint256",
          "name": "time",
          "type": "uint256"
        }
      ],
      "name": "TooLate",
      "type": "error"
    },
    {
      "anonymous": false,
      "inputs": [
        {
          "indexed": false,
          "internalType": "address",
          "name": "winner",
          "type": "address"
        },
        {
          "indexed": false,
          "internalType": "uint256",
          "name": "highestBid",
          "type": "uint256"
        }
      ],
      "name": "AuctionEnded",
      "type": "event"
    },
    {
      "inputs": [],
      "name": "beneficiary",
      "outputs": [
        {
          "internalType": "address payable",
          "name": "",
          "type": "address"
        }
      ],
      "stateMutability": "view",
      "type": "function"
    },
    {
      "inputs": [],
      "name": "biddingEnd",
      "outputs": [
        {
          "internalType": "uint256",
          "name": "",
          "type": "uint256"
        }
      ],
      "stateMutability": "view",
      "type": "function"
    },
    {
      "inputs": [
        {
          "internalType": "address",
          "name": "",
          "type": "address"
        },
        {
          "internalType": "uint256",
          "name": "",
          "type": "uint256"
        }
      ],
      "name": "bids",
      "outputs": [
        {
          "internalType": "bytes32",
          "name": "blindedBid",
          "type": "bytes32"
        },
        {
          "internalType": "uint256",
          "name": "deposit",
          "type": "uint256"
        }
      ],
      "stateMutability": "view",
      "type": "function"
    },
    {
      "inputs": [],
      "name": "ended",
      "outputs": [
        {
          "internalType": "bool",
          "name": "",
          "type": "bool"
        }
      ],
      "stateMutability": "view",
      "type": "function"
    },
    {
      "inputs": [],
      "name": "highestBid",
      "outputs": [
        {
          "internalType": "uint256",
          "name": "",
          "type": "uint256"
        }
      ],
      "stateMutability": "view",
      "type": "function"
    },
    {
      "inputs": [],
      "name": "highestBidder",
      "outputs": [
        {
          "internalType": "address",
          "name": "",
          "type": "address"
        }
      ],
      "stateMutability": "view",
      "type": "function"
    },
    {
      "inputs": [],
      "name": "revealEnd",
      "outputs": [
        {
          "internalType": "uint256",
          "name": "",
          "type": "uint256"
        }
      ],
      "stateMutability": "view",
      "type": "function"
    },
    {
      "inputs": [
        {
          "internalType": "bytes32",
          "name": "_blindedBid",
          "type": "bytes32"
        }
      ],
      "name": "bid",
      "outputs": [],
      "stateMutability": "payable",
      "type": "function"
    },
    {
      "inputs": [
        {
          "internalType": "uint256[]",
          "name": "_values",
          "type": "uint256[]"
        },
        {
          "internalType": "bool[]",
          "name": "_fake",
          "type": "bool[]"
        },
        {
          "internalType": "bytes32[]",
          "name": "_secret",
          "type": "bytes32[]"
        }
      ],
      "name": "reveal",
      "outputs": [],
      "stateMutability": "nonpayable",
      "type": "function"
    },
    {
      "inputs": [],
      "name": "withdraw",
      "outputs": [],
      "stateMutability": "nonpayable",
      "type": "function"
    },
    {
      "inputs": [],
      "name": "auctionEnd",
      "outputs": [],
      "stateMutability": "nonpayable",
      "type": "function"
    }
  ],
  "bytecode": "0x60806040523480156200001157600080fd5b50604051620014f7380380620014f78339818101604052810190620000379190620000d8565b806000806101000a81548173ffffffffffffffffffffffffffffffffffffffff021916908373ffffffffffffffffffffffffffffffffffffffff16021790555082426200008591906200012e565b600181905550816001546200009b91906200012e565b6002819055505050506200022c565b600081519050620000bb81620001f8565b92915050565b600081519050620000d28162000212565b92915050565b600080600060608486031215620000ee57600080fd5b6000620000fe86828701620000c1565b93505060206200011186828701620000c1565b92505060406200012486828701620000aa565b9150509250925092565b60006200013b82620001bf565b91506200014883620001bf565b9250827fffffffffffffffffffffffffffffffffffffffffffffffffffffffffffffffff0382111562000180576200017f620001c9565b5b828201905092915050565b600062000198826200019f565b9050919050565b600073ffffffffffffffffffffffffffffffffffffffff82169050919050565b6000819050919050565b7f4e487b7100000000000000000000000000000000000000000000000000000000600052601160045260246000fd5b62000203816200018b565b81146200020f57600080fd5b50565b6200021d81620001bf565b81146200022957600080fd5b50565b6112bb806200023c6000396000f3fe60806040526004361061009c5760003560e01c8063423b217f11610064578063423b217f14610163578063900f080a1461018e57806391f90157146101b7578063957bb1e0146101e2578063a6e66477146101fe578063d57bde79146102295761009c565b806301495c1c146100a157806312fa6feb146100df5780632a24f46c1461010a57806338af3eed146101215780633ccfd60b1461014c575b600080fd5b3480156100ad57600080fd5b506100c860048036038101906100c39190610cdd565b610254565b6040516100d6929190610f20565b60405180910390f35b3480156100eb57600080fd5b506100f4610295565b6040516101019190610f05565b60405180910390f35b34801561011657600080fd5b5061011f6102a8565b005b34801561012d57600080fd5b5061013661041a565b6040516101439190610ec1565b60405180910390f35b34801561015857600080fd5b5061016161043e565b005b34801561016f57600080fd5b5061017861051b565b6040516101859190610f49565b60405180910390f35b34801561019a57600080fd5b506101b560048036038101906101b09190610d19565b610521565b005b3480156101c357600080fd5b506101cc61087f565b6040516101d99190610ea6565b60405180910390f35b6101fc60048036038101906101f79190610db0565b6108a5565b005b34801561020a57600080fd5b50610213610983565b6040516102209190610f49565b60405180910390f35b34801561023557600080fd5b5061023e610989565b60405161024b9190610f49565b60405180910390f35b6004602052816000526040600020818154811061027057600080fd5b9060005260206000209060020201600091509150508060000154908060010154905082565b600360009054906101000a900460ff1681565b6002548042116102ef57806040517f2a35a3240000000000000000000000000000000000000000000000000000000081526004016102e69190610f49565b60405180910390fd5b600360009054906101000a900460ff1615610336576040517f61cfdcf800000000000000000000000000000000000000000000000000000000815260040160405180910390fd5b7fdaec4582d5d9595688c8c98545fdd1c696d41c6aeaeb636737e84ed2f5c00eda600560009054906101000a900473ffffffffffffffffffffffffffffffffffffffff1660065460405161038b929190610edc565b60405180910390a16001600360006101000a81548160ff02191690831515021790555060008054906101000a900473ffffffffffffffffffffffffffffffffffffffff1673ffffffffffffffffffffffffffffffffffffffff166108fc6006549081150290604051600060405180830381858888f19350505050158015610416573d6000803e3d6000fd5b5050565b60008054906101000a900473ffffffffffffffffffffffffffffffffffffffff1681565b6000600760003373ffffffffffffffffffffffffffffffffffffffff1673ffffffffffffffffffffffffffffffffffffffff1681526020019081526020016000205490506000811115610518576000600760003373ffffffffffffffffffffffffffffffffffffffff1673ffffffffffffffffffffffffffffffffffffffff168152602001908152602001600020819055503373ffffffffffffffffffffffffffffffffffffffff166108fc829081150290604051600060405180830381858888f19350505050158015610516573d6000803e3d6000fd5b505b50565b60015481565b60015480421161056857806040517f2a35a32400000000000000000000000000000000000000000000000000000000815260040161055f9190610f49565b60405180910390fd5b6002548042106105af57806040517f691e56820000000000000000000000000000000000000000000000000000000081526004016105a69190610f49565b60405180910390fd5b6000600460003373ffffffffffffffffffffffffffffffffffffffff1673ffffffffffffffffffffffffffffffffffffffff1681526020019081526020016000208054905090508086511461060357600080fd5b8085511461061057600080fd5b8084511461061d57600080fd5b600080600090505b8281101561082e576000600460003373ffffffffffffffffffffffffffffffffffffffff1673ffffffffffffffffffffffffffffffffffffffff16815260200190815260200160002082815481106106a6577f4e487b7100000000000000000000000000000000000000000000000000000000600052603260045260246000fd5b9060005260206000209060020201905060008060008b85815181106106f4577f4e487b7100000000000000000000000000000000000000000000000000000000600052603260045260246000fd5b60200260200101518b8681518110610735577f4e487b7100000000000000000000000000000000000000000000000000000000600052603260045260246000fd5b60200260200101518b8781518110610776577f4e487b7100000000000000000000000000000000000000000000000000000000600052603260045260246000fd5b602002602001015192509250925082828260405160200161079993929190610e69565b604051602081830303815290604052805190602001208460000154146107c2575050505061081b565b8360010154866107d2919061100d565b9550811580156107e6575082846001015410155b1561080a576107f5338461098f565b156108095782866108069190611063565b95505b5b6000801b8460000181905550505050505b80806108269061112c565b915050610625565b503373ffffffffffffffffffffffffffffffffffffffff166108fc829081150290604051600060405180830381858888f19350505050158015610875573d6000803e3d6000fd5b5050505050505050565b600560009054906101000a900473ffffffffffffffffffffffffffffffffffffffff1681565b6001548042106108ec57806040517f691e56820000000000000000000000000000000000000000000000000000000081526004016108e39190610f49565b60405180910390fd5b600460003373ffffffffffffffffffffffffffffffffffffffff1673ffffffffffffffffffffffffffffffffffffffff1681526020019081526020016000206040518060400160405280848152602001348152509080600181540180825580915050600190039060005260206000209060020201600090919091909150600082015181600001556020820151816001015550505050565b60025481565b60065481565b600060065482116109a35760009050610ac1565b600073ffffffffffffffffffffffffffffffffffffffff16600560009054906101000a900473ffffffffffffffffffffffffffffffffffffffff1673ffffffffffffffffffffffffffffffffffffffff1614610a745760065460076000600560009054906101000a900473ffffffffffffffffffffffffffffffffffffffff1673ffffffffffffffffffffffffffffffffffffffff1673ffffffffffffffffffffffffffffffffffffffff1681526020019081526020016000206000828254610a6c919061100d565b925050819055505b8160068190555082600560006101000a81548173ffffffffffffffffffffffffffffffffffffffff021916908373ffffffffffffffffffffffffffffffffffffffff160217905550600190505b92915050565b6000610ada610ad584610f89565b610f64565b90508083825260208201905082856020860282011115610af957600080fd5b60005b85811015610b295781610b0f8882610c9e565b845260208401935060208301925050600181019050610afc565b5050509392505050565b6000610b46610b4184610fb5565b610f64565b90508083825260208201905082856020860282011115610b6557600080fd5b60005b85811015610b955781610b7b8882610cb3565b845260208401935060208301925050600181019050610b68565b5050509392505050565b6000610bb2610bad84610fe1565b610f64565b90508083825260208201905082856020860282011115610bd157600080fd5b60005b85811015610c015781610be78882610cc8565b845260208401935060208301925050600181019050610bd4565b5050509392505050565b600081359050610c1a81611229565b92915050565b600082601f830112610c3157600080fd5b8135610c41848260208601610ac7565b91505092915050565b600082601f830112610c5b57600080fd5b8135610c6b848260208601610b33565b91505092915050565b600082601f830112610c8557600080fd5b8135610c95848260208601610b9f565b91505092915050565b600081359050610cad81611240565b92915050565b600081359050610cc281611257565b92915050565b600081359050610cd78161126e565b92915050565b60008060408385031215610cf057600080fd5b6000610cfe85828601610c0b565b9250506020610d0f85828601610cc8565b9150509250929050565b600080600060608486031215610d2e57600080fd5b600084013567ffffffffffffffff811115610d4857600080fd5b610d5486828701610c74565b935050602084013567ffffffffffffffff811115610d7157600080fd5b610d7d86828701610c20565b925050604084013567ffffffffffffffff811115610d9a57600080fd5b610da686828701610c4a565b9150509250925092565b600060208284031215610dc257600080fd5b6000610dd084828501610cb3565b91505092915050565b610de2816110a9565b82525050565b610df181611097565b82525050565b610e00816110bb565b82525050565b610e17610e12826110bb565b611175565b82525050565b610e26816110c7565b82525050565b610e3d610e38826110c7565b611187565b82525050565b610e4c816110f1565b82525050565b610e63610e5e826110f1565b611191565b82525050565b6000610e758286610e52565b602082019150610e858285610e06565b600182019150610e958284610e2c565b602082019150819050949350505050565b6000602082019050610ebb6000830184610de8565b92915050565b6000602082019050610ed66000830184610dd9565b92915050565b6000604082019050610ef16000830185610de8565b610efe6020830184610e43565b9392505050565b6000602082019050610f1a6000830184610df7565b92915050565b6000604082019050610f356000830185610e1d565b610f426020830184610e43565b9392505050565b6000602082019050610f5e6000830184610e43565b92915050565b6000610f6e610f7f565b9050610f7a82826110fb565b919050565b6000604051905090565b600067ffffffffffffffff821115610fa457610fa36111dc565b5b602082029050602081019050919050565b600067ffffffffffffffff821115610fd057610fcf6111dc565b5b602082029050602081019050919050565b600067ffffffffffffffff821115610ffc57610ffb6111dc565b5b602082029050602081019050919050565b6000611018826110f1565b9150611023836110f1565b9250827fffffffffffffffffffffffffffffffffffffffffffffffffffffffffffffffff03821115611058576110576111ad565b5b828201905092915050565b600061106e826110f1565b9150611079836110f1565b92508282101561108c5761108b6111ad565b5b828203905092915050565b60006110a2826110d1565b9050919050565b60006110b4826110d1565b9050919050565b60008115159050919050565b6000819050919050565b600073ffffffffffffffffffffffffffffffffffffffff82169050919050565b6000819050919050565b6111048261120b565b810181811067ffffffffffffffff82111715611123576111226111dc565b5b80604052505050565b6000611137826110f1565b91507fffffffffffffffffffffffffffffffffffffffffffffffffffffffffffffffff82141561116a576111696111ad565b5b600182019050919050565b60006111808261119b565b9050919050565b6000819050919050565b6000819050919050565b60006111a68261121c565b9050919050565b7f4e487b7100000000000000000000000000000000000000000000000000000000600052601160045260246000fd5b7f4e487b7100000000000000000000000000000000000000000000000000000000600052604160045260246000fd5b6000601f19601f8301169050919050565b60008160f81b9050919050565b61123281611097565b811461123d57600080fd5b50565b611249816110bb565b811461125457600080fd5b50565b611260816110c7565b811461126b57600080fd5b50565b611277816110f1565b811461128257600080fd5b5056fea2646970667358221220389b273f5800b1e1b2594de6df6060a2c7cc19274d29c559aea3e1223bd4d34564736f6c63430008040033",
  "immutableReferences": {},
  "source": "// SPDX-License-Identifier: GPL-3.0\r\npragma solidity >=0.7.0 <0.9.0;\r\ncontract BlindAuction {\r\n    struct Bid {\r\n        bytes32 blindedBid;\r\n        uint deposit;\r\n    }\r\n\r\n    address payable public beneficiary;\r\n    uint public biddingEnd;\r\n    uint public revealEnd;\r\n    bool public ended;\r\n\r\n    mapping(address => Bid[]) public bids;\r\n\r\n    address public highestBidder;\r\n    uint public highestBid;\r\n\r\n    mapping(address => uint) pendingReturns;\r\n\r\n    event AuctionEnded(address winner, uint highestBid);\r\n\r\n    /// the function has been called too early\r\n    error TooEarly(uint time);\r\n    /// the function has been called too late\r\n    error TooLate(uint time);\r\n    /// the function auctionEnd has already been called\r\n    error AuctionEndAlreadyCalled();\r\n\r\n    modifier onlyBefore(uint _time) {\r\n        if (block.timestamp >= _time) revert TooLate(_time);\r\n        _;\r\n    }\r\n    modifier onlyAfter(uint _time) {\r\n        if (block.timestamp <= _time) revert TooEarly(_time);\r\n        _;\r\n    }\r\n\r\n    constructor(\r\n        uint _biddingTime,\r\n        uint _revealTime,\r\n        address payable _beneficiary\r\n    ) {\r\n        beneficiary = _beneficiary;\r\n        biddingEnd = block.timestamp + _biddingTime;\r\n        revealEnd = biddingEnd + _revealTime;\r\n    }\r\n\r\n    /// Place a blinded bid with `_blindedBid` =\r\n    /// keccak256(abi.encodePacked(value, fake, secret)).\r\n    /// The sent ether is only refunded if the bid is correctly\r\n    /// revealed in the revealing phase. The bid is valid if the\r\n    /// ether sent together with the bid is at least \"value\" and\r\n    /// \"fake\" is not true. Setting \"fake\" to true and sending\r\n    /// not the exact amount are ways to hide the real bid but\r\n    /// still make the required deposit. The same address can\r\n    /// place multiple bids.\r\n    function bid(bytes32 _blindedBid)\r\n        public\r\n        payable\r\n        onlyBefore(biddingEnd)\r\n    {\r\n        bids[msg.sender].push(Bid({\r\n            blindedBid: _blindedBid,\r\n            deposit: msg.value\r\n        }));\r\n    }\r\n\r\n    /// reveal blinded bids\r\n    function reveal(\r\n        uint[] memory _values,\r\n        bool[] memory _fake,\r\n        bytes32[] memory _secret\r\n    )\r\n        public\r\n        onlyAfter(biddingEnd)\r\n        onlyBefore(revealEnd)\r\n    {\r\n        uint length = bids[msg.sender].length;\r\n        require(_values.length == length);\r\n        require(_fake.length == length);\r\n        require(_secret.length == length);\r\n\r\n        uint refund;\r\n        for (uint i = 0; i < length; i++) {\r\n            Bid storage bidToCheck = bids[msg.sender][i];\r\n            (uint value, bool fake, bytes32 secret) = (_values[i], _fake[i], _secret[i]);\r\n            if (bidToCheck.blindedBid != keccak256(abi.encodePacked(value, fake, secret))) {\r\n                continue;\r\n            }\r\n            refund += bidToCheck.deposit;\r\n            if (!fake && bidToCheck.deposit >= value) {\r\n                if (placeBid(msg.sender, value))\r\n                    refund -= value;\r\n            }\r\n            bidToCheck.blindedBid = bytes32(0);\r\n        }\r\n        payable(msg.sender).transfer(refund);\r\n    }\r\n\r\n    /// withdraw a bid that was overbid\r\n    function withdraw() public {\r\n        uint amount = pendingReturns[msg.sender];\r\n        if (amount > 0) {\r\n            pendingReturns[msg.sender] = 0;\r\n            payable(msg.sender).transfer(amount);\r\n        }\r\n    }\r\n\r\n    /// end the auction\r\n    function auctionEnd()\r\n        public\r\n        onlyAfter(revealEnd)\r\n    {\r\n        if (ended) revert AuctionEndAlreadyCalled();\r\n        emit AuctionEnded(highestBidder, highestBid);\r\n        ended = true;\r\n        beneficiary.transfer(highestBid);\r\n    }\r\n\r\n    // internal function\r\n    function placeBid(address bidder, uint value) internal returns (bool success) {\r\n        if (value <= highestBid) {\r\n            return false;\r\n        }\r\n        if (highestBidder != address(0)) {\r\n            // refund the previously highest bidder\r\n            pendingReturns[highestBidder] += highestBid;\r\n        }\r\n        highestBid = value;\r\n        highestBidder = bidder;\r\n        return true;\r\n    }\r\n}",
  "sourcePath": "F:\\coursera\\Blockchain\\ethereum\\Smart contract by examples\\contracts\\BlindAuction.sol",
  "compiler": {
    "name": "solc",
    "version": "0.8.4+commit.c7e474f2.Emscripten.clang"
  },
  "schemaVersion": "3.4.3",
  "updatedAt": "2021-09-23T09:32:27.919Z",
  "devdoc": {
    "kind": "dev",
    "methods": {},
    "version": 1
  },
  "userdoc": {
    "errors": {
      "AuctionEndAlreadyCalled()": [
        {
          "notice": "the function auctionEnd has already been called"
        }
      ],
      "TooEarly(uint256)": [
        {
          "notice": "the function has been called too early"
        }
      ],
      "TooLate(uint256)": [
        {
          "notice": "the function has been called too late"
        }
      ]
    },
    "kind": "user",
    "methods": {
      "auctionEnd()": {
        "notice": "end the auction"
      },
      "bid(bytes32)": {
        "notice": "Place a blinded bid with `_blindedBid` = keccak256(abi.encodePacked(value, fake, secret)). The sent ether is only refunded if the bid is correctly revealed in the revealing phase. The bid is valid if the ether sent together with the bid is at least \"value\" and \"fake\" is not true. Setting \"fake\" to true and sending not the exact amount are ways to hide the real bid but still make the required deposit. The same address can place multiple bids."
      },
      "reveal(uint256[],bool[],bytes32[])": {
        "notice": "reveal blinded bids"
      },
      "withdraw()": {
        "notice": "withdraw a bid that was overbid"
      }
    },
    "version": 1
  }
}