{
  "contractName": "SimpleAuction",
  "abi": [
    {
      "inputs": [
        {
          "internalType": "uint256",
          "name": "_biddingTime",
          "type": "uint256"
        },
        {
          "internalType": "address payable",
          "name": "_beneficiary",
          "type": "address"
        }
      ],
      "stateMutability": "nonpayable",
      "type": "constructor"
    },
    {
      "inputs": [],
      "name": "AuctionAlreadyEnded",
      "type": "error"
    },
    {
      "inputs": [],
      "name": "AuctionEndAlreadyCalled",
      "type": "error"
    },
    {
      "inputs": [],
      "name": "AuctionNotYetEnded",
      "type": "error"
    },
    {
      "inputs": [
        {
          "internalType": "uint256",
          "name": "highestBid",
          "type": "uint256"
        }
      ],
      "name": "BidNotHighEnough",
      "type": "error"
    },
    {
      "anonymous": false,
      "inputs": [
        {
          "indexed": false,
          "internalType": "address",
          "name": "winner",
          "type": "address"
        },
        {
          "indexed": false,
          "internalType": "uint256",
          "name": "amount",
          "type": "uint256"
        }
      ],
      "name": "AuctionEnded",
      "type": "event"
    },
    {
      "anonymous": false,
      "inputs": [
        {
          "indexed": false,
          "internalType": "address",
          "name": "bidder",
          "type": "address"
        },
        {
          "indexed": false,
          "internalType": "uint256",
          "name": "amount",
          "type": "uint256"
        }
      ],
      "name": "HighestBidIncreased",
      "type": "event"
    },
    {
      "inputs": [],
      "name": "auctionEndTime",
      "outputs": [
        {
          "internalType": "uint256",
          "name": "",
          "type": "uint256"
        }
      ],
      "stateMutability": "view",
      "type": "function"
    },
    {
      "inputs": [],
      "name": "beneficiary",
      "outputs": [
        {
          "internalType": "address payable",
          "name": "",
          "type": "address"
        }
      ],
      "stateMutability": "view",
      "type": "function"
    },
    {
      "inputs": [],
      "name": "highestBid",
      "outputs": [
        {
          "internalType": "uint256",
          "name": "",
          "type": "uint256"
        }
      ],
      "stateMutability": "view",
      "type": "function"
    },
    {
      "inputs": [],
      "name": "highestBidder",
      "outputs": [
        {
          "internalType": "address",
          "name": "",
          "type": "address"
        }
      ],
      "stateMutability": "view",
      "type": "function"
    },
    {
      "inputs": [],
      "name": "bid",
      "outputs": [],
      "stateMutability": "payable",
      "type": "function"
    },
    {
      "inputs": [],
      "name": "withdraw",
      "outputs": [
        {
          "internalType": "bool",
          "name": "",
          "type": "bool"
        }
      ],
      "stateMutability": "nonpayable",
      "type": "function"
    },
    {
      "inputs": [],
      "name": "auctionEnd",
      "outputs": [],
      "stateMutability": "nonpayable",
      "type": "function"
    }
  ],
  "bytecode": "0x608060405234801561001057600080fd5b506040516109ae3803806109ae833981810160405281019061003291906100b5565b806000806101000a81548173ffffffffffffffffffffffffffffffffffffffff021916908373ffffffffffffffffffffffffffffffffffffffff160217905550814261007e91906100f1565b60018190555050506101e0565b60008151905061009a816101b2565b92915050565b6000815190506100af816101c9565b92915050565b600080604083850312156100c857600080fd5b60006100d6858286016100a0565b92505060206100e78582860161008b565b9150509250929050565b60006100fc82610179565b915061010783610179565b9250827fffffffffffffffffffffffffffffffffffffffffffffffffffffffffffffffff0382111561013c5761013b610183565b5b828201905092915050565b600061015282610159565b9050919050565b600073ffffffffffffffffffffffffffffffffffffffff82169050919050565b6000819050919050565b7f4e487b7100000000000000000000000000000000000000000000000000000000600052601160045260246000fd5b6101bb81610147565b81146101c657600080fd5b50565b6101d281610179565b81146101dd57600080fd5b50565b6107bf806101ef6000396000f3fe6080604052600436106100705760003560e01c80633ccfd60b1161004e5780633ccfd60b146100c15780634b449cba146100ec57806391f9015714610117578063d57bde791461014257610070565b80631998aeef146100755780632a24f46c1461007f57806338af3eed14610096575b600080fd5b61007d61016d565b005b34801561008b57600080fd5b506100946102f9565b005b3480156100a257600080fd5b506100ab61045f565b6040516100b89190610630565b60405180910390f35b3480156100cd57600080fd5b506100d6610483565b6040516100e39190610674565b60405180910390f35b3480156100f857600080fd5b506101016105a7565b60405161010e919061068f565b60405180910390f35b34801561012357600080fd5b5061012c6105ad565b6040516101399190610615565b60405180910390f35b34801561014e57600080fd5b506101576105d3565b604051610164919061068f565b60405180910390f35b6001544211156101a9576040517fd02e774d00000000000000000000000000000000000000000000000000000000815260040160405180910390fd5b60035434116101f1576003546040517f4e12c1bb0000000000000000000000000000000000000000000000000000000081526004016101e8919061068f565b60405180910390fd5b6000600354146102765760035460046000600260009054906101000a900473ffffffffffffffffffffffffffffffffffffffff1673ffffffffffffffffffffffffffffffffffffffff1673ffffffffffffffffffffffffffffffffffffffff168152602001908152602001600020600082825461026e91906106aa565b925050819055505b33600260006101000a81548173ffffffffffffffffffffffffffffffffffffffff021916908373ffffffffffffffffffffffffffffffffffffffff160217905550346003819055507ff4757a49b326036464bec6fe419a4ae38c8a02ce3e68bf0809674f6aab8ad30033346040516102ef92919061064b565b60405180910390a1565b600154421015610335576040517f44cee29000000000000000000000000000000000000000000000000000000000815260040160405180910390fd5b600560009054906101000a900460ff161561037c576040517f61cfdcf800000000000000000000000000000000000000000000000000000000815260040160405180910390fd5b6001600560006101000a81548160ff0219169083151502179055507fdaec4582d5d9595688c8c98545fdd1c696d41c6aeaeb636737e84ed2f5c00eda600260009054906101000a900473ffffffffffffffffffffffffffffffffffffffff166003546040516103ec92919061064b565b60405180910390a160008054906101000a900473ffffffffffffffffffffffffffffffffffffffff1673ffffffffffffffffffffffffffffffffffffffff166108fc6003549081150290604051600060405180830381858888f1935050505015801561045c573d6000803e3d6000fd5b50565b60008054906101000a900473ffffffffffffffffffffffffffffffffffffffff1681565b600080600460003373ffffffffffffffffffffffffffffffffffffffff1673ffffffffffffffffffffffffffffffffffffffff168152602001908152602001600020549050600081111561059e576000600460003373ffffffffffffffffffffffffffffffffffffffff1673ffffffffffffffffffffffffffffffffffffffff168152602001908152602001600020819055503373ffffffffffffffffffffffffffffffffffffffff166108fc829081150290604051600060405180830381858888f1935050505061059d5780600460003373ffffffffffffffffffffffffffffffffffffffff1673ffffffffffffffffffffffffffffffffffffffff1681526020019081526020016000208190555060009150506105a4565b5b60019150505b90565b60015481565b600260009054906101000a900473ffffffffffffffffffffffffffffffffffffffff1681565b60035481565b6105e281610712565b82525050565b6105f181610700565b82525050565b61060081610724565b82525050565b61060f81610750565b82525050565b600060208201905061062a60008301846105e8565b92915050565b600060208201905061064560008301846105d9565b92915050565b600060408201905061066060008301856105e8565b61066d6020830184610606565b9392505050565b600060208201905061068960008301846105f7565b92915050565b60006020820190506106a46000830184610606565b92915050565b60006106b582610750565b91506106c083610750565b9250827fffffffffffffffffffffffffffffffffffffffffffffffffffffffffffffffff038211156106f5576106f461075a565b5b828201905092915050565b600061070b82610730565b9050919050565b600061071d82610730565b9050919050565b60008115159050919050565b600073ffffffffffffffffffffffffffffffffffffffff82169050919050565b6000819050919050565b7f4e487b7100000000000000000000000000000000000000000000000000000000600052601160045260246000fdfea2646970667358221220088a82b7deea40771990df95c5e3217c95623e4edaee72ebe181e11a6e0ec9b664736f6c63430008040033",
  "immutableReferences": {},
  "source": "// SPDX-License-Identifier: GPL-3.0\r\npragma solidity >=0.7.0 <0.9.0;\r\ncontract SimpleAuction {\r\n    address payable public beneficiary;\r\n    uint public auctionEndTime;\r\n\r\n    // current state of the auction\r\n    address public highestBidder;\r\n    uint public highestBid;\r\n\r\n    // allowed withdrawals of previous bids\r\n    mapping(address => uint) pendingReturns;\r\n\r\n    // set to true at the end, disallows any change\r\n    // by default initialized to false\r\n    bool ended;\r\n\r\n    // events that will be emitted on changes\r\n    event HighestBidIncreased(address bidder, uint amount);\r\n    event AuctionEnded(address winner, uint amount);\r\n\r\n    /// The auction has already ended.\r\n    error AuctionAlreadyEnded();\r\n    /// There is already a higher or equal bid.\r\n    error BidNotHighEnough(uint highestBid);\r\n    /// The auction has not ended yet.\r\n    error AuctionNotYetEnded();\r\n    /// The function auctionEnd has already been called.\r\n    error AuctionEndAlreadyCalled();\r\n\r\n    constructor(\r\n        uint _biddingTime,\r\n        address payable _beneficiary\r\n    ) {\r\n        beneficiary = _beneficiary;\r\n        auctionEndTime = block.timestamp + _biddingTime;\r\n    }\r\n\r\n    /// bid on the auction\r\n    function bid() public payable {\r\n        if (block.timestamp > auctionEndTime)\r\n            revert AuctionAlreadyEnded();\r\n        \r\n        if (msg.value <= highestBid)\r\n            revert BidNotHighEnough(highestBid);\r\n        \r\n        if (highestBid != 0) {\r\n            pendingReturns[highestBidder] += highestBid;\r\n        }\r\n        highestBidder = msg.sender;\r\n        highestBid = msg.value;\r\n        emit HighestBidIncreased(msg.sender, msg.value);\r\n    }\r\n\r\n    /// withdraw a bid that was overbid\r\n    function withdraw() public returns (bool) {\r\n        uint amount = pendingReturns[msg.sender];\r\n        if (amount > 0) {\r\n            pendingReturns[msg.sender] = 0;\r\n            if (!payable(msg.sender).send(amount)) {\r\n                pendingReturns[msg.sender] = amount;\r\n                return false;\r\n            }\r\n        }\r\n        return true;\r\n    }\r\n\r\n    /// End the auction and send the highest bid to the beneficiary\r\n    function auctionEnd() public {\r\n        // conditions\r\n        if (block.timestamp < auctionEndTime)\r\n            revert AuctionNotYetEnded();\r\n        if (ended)\r\n            revert AuctionEndAlreadyCalled();\r\n        \r\n        // effects\r\n        ended = true;\r\n        emit AuctionEnded(highestBidder, highestBid);\r\n\r\n        // interaction\r\n        beneficiary.transfer(highestBid);\r\n    }\r\n}",
  "sourcePath": "F:\\coursera\\Blockchain\\ethereum\\Smart contract by examples\\contracts\\OpenAuction.sol",
  "compiler": {
    "name": "solc",
    "version": "0.8.4+commit.c7e474f2.Emscripten.clang"
  },
  "schemaVersion": "3.4.3",
  "updatedAt": "2021-09-23T09:32:27.927Z",
  "devdoc": {
    "kind": "dev",
    "methods": {},
    "version": 1
  },
  "userdoc": {
    "errors": {
      "AuctionAlreadyEnded()": [
        {
          "notice": "The auction has already ended."
        }
      ],
      "AuctionEndAlreadyCalled()": [
        {
          "notice": "The function auctionEnd has already been called."
        }
      ],
      "AuctionNotYetEnded()": [
        {
          "notice": "The auction has not ended yet."
        }
      ],
      "BidNotHighEnough(uint256)": [
        {
          "notice": "There is already a higher or equal bid."
        }
      ]
    },
    "kind": "user",
    "methods": {
      "auctionEnd()": {
        "notice": "End the auction and send the highest bid to the beneficiary"
      },
      "bid()": {
        "notice": "bid on the auction"
      },
      "withdraw()": {
        "notice": "withdraw a bid that was overbid"
      }
    },
    "version": 1
  }
}